{
  "contractName": "ConvertLib",
  "abi": [
    {
      "constant": false,
      "inputs": [
        {
          "name": "x",
          "type": "bytes32"
        }
      ],
      "name": "b32toHexString",
      "outputs": [
        {
          "name": "",
          "type": "string"
        }
      ],
      "payable": false,
      "stateMutability": "nonpayable",
      "type": "function"
    },
    {
      "constant": true,
      "inputs": [
        {
          "name": "_dayMonthYear",
          "type": "bytes32"
        }
      ],
      "name": "toUnixtime",
      "outputs": [
        {
          "name": "unixtime",
          "type": "uint256"
        }
      ],
      "payable": false,
      "stateMutability": "view",
      "type": "function"
    }
  ],
  "bytecode": "0x610200604052600b6080908152602a60a052604660c0908152606560e05260836101005260a2610120526101405260df6101605260fe6101805261011c6101a05261013b6101c0526101596101e05261005c90600090600c61006f565b5034801561006957600080fd5b50610127565b6001830191839082156100f55791602002820160005b838211156100c557835183826101000a81548161ffff021916908361ffff1602179055509260200192600201602081600101049283019260010302610085565b80156100f35782816101000a81549061ffff02191690556002016020816001010492830192600103026100c5565b505b50610101929150610105565b5090565b61012491905b8082111561010157805461ffff1916815560010161010b565b90565b61080f806101366000396000f30060806040526004361061004b5763ffffffff7c01000000000000000000000000000000000000000000000000000000006000350416638ad46ba08114610050578063bcf599f1146100dd575b600080fd5b34801561005c57600080fd5b50610068600435610107565b6040805160208082528351818301528351919283929083019185019080838360005b838110156100a257818101518382015260200161008a565b50505050905090810190601f1680156100cf5780820380516001836020036101000a031916815260200191505b509250505060405180910390f35b3480156100e957600080fd5b506100f560043561020b565b60408051918252519081900360200190f35b6040805181815260608082018352918291600091829182918291906020820161080080388339019050509450600093505b6020841015610200576008601f8590030260020a8781151561015657fe5b049250601060ff841604915050601081028203600960ff8316111561017c576027820191505b60098160ff16111561018c576027015b8160300160f860020a0285856002028151811015156101a757fe5b906020010190600160f860020a031916908160001a9053508060300160f860020a0285856002026001018151811015156101dd57fe5b906020010190600160f860020a031916908160001a905350600190930192610138565b509295945050505050565b60006060806060600080600061022088610518565b60408051600280825281830183529298509190602083019080388339505060408051600480825281830190925292975090506020820160808038833901905050935085600581518110151561027157fe5b90602001015160f860020a900460f860020a0284600081518110151561029357fe5b906020010190600160f860020a031916908160001a9053508560068151811015156102ba57fe5b90602001015160f860020a900460f860020a028460018151811015156102dc57fe5b906020010190600160f860020a031916908160001a90535085600781518110151561030357fe5b90602001015160f860020a900460f860020a0284600281518110151561032557fe5b906020010190600160f860020a031916908160001a90535085600881518110151561034c57fe5b90602001015160f860020a900460f860020a0284600381518110151561036e57fe5b906020010190600160f860020a031916908160001a90535061038f8461065e565b925085600a8151811015156103a057fe5b90602001015160f860020a900460f860020a028560008151811015156103c257fe5b906020010190600160f860020a031916908160001a90535085600b8151811015156103e957fe5b90602001015160f860020a900460f860020a0285600181518110151561040b57fe5b906020010190600160f860020a031916908160001a90535061042c8561065e565b915085600d81518110151561043d57fe5b90602001015160f860020a900460f860020a0285600081518110151561045f57fe5b906020010190600160f860020a031916908160001a90535085600e81518110151561048657fe5b90602001015160f860020a900460f860020a028560018151811015156104a857fe5b906020010190600160f860020a031916908160001a9053506104c98561065e565b90508060006000198401600c81106104dd57fe5b601091828204019190066002029054906101000a900461ffff1661ffff166107b2850361016d02010162015180029650505050505050919050565b6040805160208082528183019092526060918291600091829182918591908082016104008038833901905050945060009350600092505b60208310156105c4576008830260020a870291507fff000000000000000000000000000000000000000000000000000000000000008216156105b95781858581518110151561059a57fe5b906020010190600160f860020a031916908160001a9053506001909301925b60019092019161054f565b836040519080825280601f01601f1916602001820160405280156105f2578160200160208202803883390190505b509050600092505b8383101561065457848381518110151561061057fe5b90602001015160f860020a900460f860020a02818481518110151561063157fe5b906020010190600160f860020a031916908160001a9053506001909201916105fa565b9695505050505050565b600061066b826000610671565b92915050565b6000828180805b83518110156107c65783517f3000000000000000000000000000000000000000000000000000000000000000908590839081106106b157fe5b90602001015160f860020a900460f860020a02600160f860020a03191610158015610727575083517f39000000000000000000000000000000000000000000000000000000000000009085908390811061070757fe5b90602001015160f860020a900460f860020a02600160f860020a03191611155b156107805781156107465785151561073e576107c6565b600019909501945b600a830292506030848281518110151561075c57fe5b90602001015160f860020a900460f860020a0260f860020a900403830192506107be565b838181518110151561078e57fe5b90602001015160f860020a900460f860020a02600160f860020a031916602e60f860020a0214156107be57600191505b600101610678565b60008611156107d85785600a0a830292505b5090959450505050505600a165627a7a723058206900563c30045ccfb0b2b6ea89f97612243a6439346978571e0212f9b46cbed50029",
  "source": "pragma solidity ^0.4.24;\n\n\ncontract ConvertLib {\n\n    // .. since beginning of the year\n    uint16[12] days_since = [\n    11,\n    42,\n    70,\n    101,\n    131,\n    162,\n    192,\n    223,\n    254,\n    284,\n    315,\n    345\n    ];\n\n    function b32toString(bytes32 x) internal returns (string) {\n        // gas usage: about 1K gas per char.\n        bytes memory bytesString = new bytes(32);\n        uint charCount = 0;\n\n        for (uint j = 0; j < 32; j++) {\n            byte char = byte(bytes32(uint(x) * 2 ** (8 * j)));\n            if (char != 0) {\n                bytesString[charCount] = char;\n                charCount++;\n            }\n        }\n\n        bytes memory bytesStringTrimmed = new bytes(charCount);\n\n        for (j = 0; j < charCount; j++) {\n            bytesStringTrimmed[j] = bytesString[j];\n        }\n\n        return string(bytesStringTrimmed);\n    }\n\n    function b32toHexString(bytes32 x) returns (string) {\n        bytes memory b = new bytes(64);\n        for (uint i = 0; i < 32; i++) {\n            uint8 by = uint8(uint(x) / (2**(8*(31 - i))));\n            uint8 high = by/16;\n            uint8 low = by - 16*high;\n            if (high > 9) {\n                high += 39;\n            }\n            if (low > 9) {\n                low += 39;\n            }\n            b[2*i] = byte(high+48);\n            b[2*i+1] = byte(low+48);\n        }\n\n        return string(b);\n    }\n\n    function parseInt(string _a) internal returns (uint) {\n        return parseInt(_a, 0);\n    }\n\n    // parseInt(parseFloat*10^_b)\n    function parseInt(string _a, uint _b) internal returns (uint) {\n        bytes memory bresult = bytes(_a);\n        uint mint = 0;\n        bool decimals = false;\n        for (uint i = 0; i<bresult.length; i++) {\n            if ((bresult[i] >= 48)&&(bresult[i] <= 57)) {\n                if (decimals) {\n                    if (_b == 0) {\n                        break;\n                    } else {\n                        _b--;\n                    }\n                }\n                mint *= 10;\n                mint += uint(bresult[i]) - 48;\n            } else if (bresult[i] == 46) {\n                decimals = true;\n            }\n        }\n        if (_b > 0) {\n            mint *= 10**_b;\n        }\n        return mint;\n    }\n\n    // the following function yields correct results in the time between 1.3.2016 and 28.02.2020,\n    // so within the validity of the contract its correct.\n    function toUnixtime(bytes32 _dayMonthYear) constant returns (uint unixtime) {\n        // _day_month_year = /dep/2016/09/10\n        bytes memory bDmy = bytes(b32toString(_dayMonthYear));\n        bytes memory temp2 = bytes(new string(2));\n        bytes memory temp4 = bytes(new string(4));\n\n        temp4[0] = bDmy[5];\n        temp4[1] = bDmy[6];\n        temp4[2] = bDmy[7];\n        temp4[3] = bDmy[8];\n        uint year = parseInt(string(temp4));\n\n        temp2[0] = bDmy[10];\n        temp2[1] = bDmy[11];\n        uint month = parseInt(string(temp2));\n\n        temp2[0] = bDmy[13];\n        temp2[1] = bDmy[14];\n        uint day = parseInt(string(temp2));\n\n        unixtime = ((year - 1970) * 365 + days_since[month-1] + day) * 86400;\n    }\n}\n",
  "sourcePath": "/home/speak2ravi/Documents/develop/karmaBlockChain/contracts/convertLib.sol",
  "compiler": {
    "name": "solc",
    "version": "0.4.24+commit.e67f0147.Emscripten.clang"
  },
  "schemaVersion": "2.0.1",
  "updatedAt": "2018-11-05T11:11:41.166Z"
}