{
  "contractName": "ConvertLib",
  "abi": [
    {
      "constant": true,
      "inputs": [
        {
          "name": "source",
          "type": "string"
        }
      ],
      "name": "stringToBytes32",
      "outputs": [
        {
          "name": "result",
          "type": "bytes32"
        }
      ],
      "payable": false,
      "stateMutability": "pure",
      "type": "function"
    },
    {
      "constant": true,
      "inputs": [
        {
          "name": "x",
          "type": "bytes32"
        }
      ],
      "name": "b32toString",
      "outputs": [
        {
          "name": "",
          "type": "string"
        }
      ],
      "payable": false,
      "stateMutability": "pure",
      "type": "function"
    },
    {
      "constant": true,
      "inputs": [
        {
          "name": "x",
          "type": "bytes32"
        }
      ],
      "name": "b32toHexString",
      "outputs": [
        {
          "name": "",
          "type": "string"
        }
      ],
      "payable": false,
      "stateMutability": "pure",
      "type": "function"
    }
  ],
  "bytecode": "0x610200604052600b6080908152602a60a052604660c0908152606560e05260836101005260a2610120526101405260df6101605260fe6101805261011c6101a05261013b6101c0526101596101e05261005c90600090600c61006f565b5034801561006957600080fd5b50610127565b6001830191839082156100f55791602002820160005b838211156100c557835183826101000a81548161ffff021916908361ffff1602179055509260200192600201602081600101049283019260010302610085565b80156100f35782816101000a81549061ffff02191690556002016020816001010492830192600103026100c5565b505b50610101929150610105565b5090565b61012491905b8082111561010157805461ffff1916815560010161010b565b90565b6104d5806101366000396000f3006080604052600436106100565763ffffffff7c01000000000000000000000000000000000000000000000000000000006000350416635c8a733a811461005b5780638ad46ba0146100e8578063cfb5192814610100575b600080fd5b34801561006757600080fd5b5061007360043561016b565b6040805160208082528351818301528351919283929083019185019080838360005b838110156100ad578181015183820152602001610095565b50505050905090810190601f1680156100da5780820380516001836020036101000a031916815260200191505b509250505060405180910390f35b3480156100f457600080fd5b50610073600435610319565b34801561010c57600080fd5b506040805160206004803580820135601f81018490048402850184019095528484526101599436949293602493928401919081908401838280828437509497506104859650505050505050565b60408051918252519081900360200190f35b6040805160208082528183019092526060918291600091829182918591908082016104008038833901905050945060009350600092505b602083101561022f576008830260020a870291507fff00000000000000000000000000000000000000000000000000000000000000821615610224578185858151811015156101ed57fe5b9060200101907effffffffffffffffffffffffffffffffffffffffffffffffffffffffffffff1916908160001a9053506001909301925b6001909201916101a2565b836040519080825280601f01601f19166020018201604052801561025d578160200160208202803883390190505b509050600092505b8383101561030f57848381518110151561027b57fe5b9060200101517f010000000000000000000000000000000000000000000000000000000000000090047f01000000000000000000000000000000000000000000000000000000000000000281848151811015156102d457fe5b9060200101907effffffffffffffffffffffffffffffffffffffffffffffffffffffffffffff1916908160001a905350600190920191610265565b9695505050505050565b6040805181815260608082018352918291600091829182918291906020820161080080388339019050509450600093505b602084101561047a576008601f8590030260020a8781151561036857fe5b049250601060ff841604915050601081028203600960ff8316111561038e576027820191505b60098160ff16111561039e576027015b816030017f01000000000000000000000000000000000000000000000000000000000000000285856002028151811015156103d557fe5b9060200101907effffffffffffffffffffffffffffffffffffffffffffffffffffffffffffff1916908160001a905350806030017f010000000000000000000000000000000000000000000000000000000000000002858560020260010181518110151561043f57fe5b9060200101907effffffffffffffffffffffffffffffffffffffffffffffffffffffffffffff1916908160001a90535060019093019261034a565b509295945050505050565b80516000908290151561049b57600091506104a3565b602083015191505b509190505600a165627a7a723058205fca53ba74d8964a32193758c1b8c9b6df6b6061f7f4e0f6005a4080a7d6bf180029",
  "source": "pragma solidity ^0.4.24;\n\ncontract ConvertLib {\n\n    // .. since beginning of the year\n    uint16[12] days_since = [\n    11,\n    42,\n    70,\n    101,\n    131,\n    162,\n    192,\n    223,\n    254,\n    284,\n    315,\n    345\n    ];\n\n   function stringToBytes32(string memory source) pure public returns (bytes32 result) {\n         bytes memory tempEmptyStringTest = bytes(source);\n         if (tempEmptyStringTest.length == 0) {\n            return 0x0;\n         }\n\n         assembly {\n                result := mload(add(source, 32))\n         }\n   }\n\n    function b32toString(bytes32 x) pure public returns (string) {\n        // gas usage: about 1K gas per char.\n        bytes memory bytesString = new bytes(32);\n        uint charCount = 0;\n\n        for (uint j = 0; j < 32; j++) {\n            byte char = byte(bytes32(uint(x) * 2 ** (8 * j)));\n            if (char != 0) {\n                bytesString[charCount] = char;\n                charCount++;\n            }\n        }\n\n        bytes memory bytesStringTrimmed = new bytes(charCount);\n\n        for (j = 0; j < charCount; j++) {\n            bytesStringTrimmed[j] = bytesString[j];\n        }\n\n        return string(bytesStringTrimmed);\n    }\n\n    function b32toHexString(bytes32 x) pure public returns (string) {\n        bytes memory b = new bytes(64);\n        for (uint i = 0; i < 32; i++) {\n            uint8 by = uint8(uint(x) / (2**(8*(31 - i))));\n            uint8 high = by/16;\n            uint8 low = by - 16*high;\n            if (high > 9) {\n                high += 39;\n            }\n            if (low > 9) {\n                low += 39;\n            }\n            b[2*i] = byte(high+48);\n            b[2*i+1] = byte(low+48);\n        }\n\n        return string(b);\n    }\n}\n",
  "sourcePath": "/home/speak2ravi/Documents/develop/karmaBlockChain/contracts/ConvertLib.sol",
  "compiler": {
    "name": "solc",
    "version": "0.4.24+commit.e67f0147.Emscripten.clang"
  },
  "schemaVersion": "2.0.1",
  "updatedAt": "2018-11-06T12:21:37.291Z"
}