{
  "contractName": "KarmaDatabase",
  "abi": [
    {
      "constant": true,
      "inputs": [
        {
          "name": "",
          "type": "uint256"
        }
      ],
      "name": "serviceProviders",
      "outputs": [
        {
          "name": "providerAddress",
          "type": "address"
        },
        {
          "name": "name",
          "type": "bytes32"
        },
        {
          "name": "category",
          "type": "uint8"
        },
        {
          "name": "serviceProviderId",
          "type": "bytes32"
        }
      ],
      "payable": false,
      "stateMutability": "view",
      "type": "function"
    },
    {
      "constant": true,
      "inputs": [
        {
          "name": "",
          "type": "bytes32"
        }
      ],
      "name": "customerByExternalId",
      "outputs": [
        {
          "name": "customerAddress",
          "type": "address"
        },
        {
          "name": "customerExternalId",
          "type": "bytes32"
        },
        {
          "name": "customerType",
          "type": "uint8"
        }
      ],
      "payable": false,
      "stateMutability": "view",
      "type": "function"
    },
    {
      "constant": true,
      "inputs": [
        {
          "name": "",
          "type": "address"
        },
        {
          "name": "",
          "type": "uint256"
        }
      ],
      "name": "customerLoans",
      "outputs": [
        {
          "name": "",
          "type": "uint256"
        }
      ],
      "payable": false,
      "stateMutability": "view",
      "type": "function"
    },
    {
      "constant": true,
      "inputs": [
        {
          "name": "",
          "type": "bytes32"
        }
      ],
      "name": "serviceProviderByExternalIds",
      "outputs": [
        {
          "name": "providerAddress",
          "type": "address"
        },
        {
          "name": "name",
          "type": "bytes32"
        },
        {
          "name": "category",
          "type": "uint8"
        },
        {
          "name": "serviceProviderId",
          "type": "bytes32"
        }
      ],
      "payable": false,
      "stateMutability": "view",
      "type": "function"
    },
    {
      "constant": true,
      "inputs": [
        {
          "name": "",
          "type": "address"
        }
      ],
      "name": "customerIds",
      "outputs": [
        {
          "name": "",
          "type": "uint256"
        }
      ],
      "payable": false,
      "stateMutability": "view",
      "type": "function"
    },
    {
      "constant": true,
      "inputs": [
        {
          "name": "",
          "type": "bytes32"
        },
        {
          "name": "",
          "type": "uint256"
        }
      ],
      "name": "customerLoansById",
      "outputs": [
        {
          "name": "",
          "type": "uint256"
        }
      ],
      "payable": false,
      "stateMutability": "view",
      "type": "function"
    },
    {
      "constant": true,
      "inputs": [
        {
          "name": "",
          "type": "uint256"
        }
      ],
      "name": "customers",
      "outputs": [
        {
          "name": "customerAddress",
          "type": "address"
        },
        {
          "name": "customerExternalId",
          "type": "bytes32"
        },
        {
          "name": "customerType",
          "type": "uint8"
        }
      ],
      "payable": false,
      "stateMutability": "view",
      "type": "function"
    },
    {
      "constant": true,
      "inputs": [
        {
          "name": "",
          "type": "address"
        }
      ],
      "name": "serviceProviderIds",
      "outputs": [
        {
          "name": "",
          "type": "uint256"
        }
      ],
      "payable": false,
      "stateMutability": "view",
      "type": "function"
    },
    {
      "constant": true,
      "inputs": [
        {
          "name": "",
          "type": "uint256"
        }
      ],
      "name": "loans",
      "outputs": [
        {
          "name": "borrowerAddress",
          "type": "address"
        },
        {
          "name": "investorAddress",
          "type": "address"
        },
        {
          "name": "loanId",
          "type": "uint256"
        },
        {
          "name": "category",
          "type": "uint8"
        },
        {
          "name": "principal",
          "type": "uint256"
        },
        {
          "name": "currency",
          "type": "uint8"
        },
        {
          "name": "rateOfInterest",
          "type": "uint256"
        },
        {
          "name": "approvedRate",
          "type": "uint256"
        },
        {
          "name": "incentiveRate",
          "type": "uint256"
        },
        {
          "name": "tenure",
          "type": "uint256"
        },
        {
          "name": "borrowerExternalId",
          "type": "bytes32"
        },
        {
          "name": "investorExternalId",
          "type": "bytes32"
        },
        {
          "name": "serviceProviderId",
          "type": "bytes32"
        },
        {
          "name": "status",
          "type": "uint8"
        }
      ],
      "payable": false,
      "stateMutability": "view",
      "type": "function"
    },
    {
      "anonymous": false,
      "inputs": [
        {
          "indexed": false,
          "name": "_loanId",
          "type": "uint256"
        },
        {
          "indexed": false,
          "name": "_customerId",
          "type": "bytes32"
        },
        {
          "indexed": false,
          "name": "_serviceProviderId",
          "type": "bytes32"
        },
        {
          "indexed": false,
          "name": "principal",
          "type": "uint256"
        },
        {
          "indexed": false,
          "name": "tenure",
          "type": "uint256"
        }
      ],
      "name": "LogLoanApplied",
      "type": "event"
    },
    {
      "anonymous": false,
      "inputs": [
        {
          "indexed": false,
          "name": "_loanId",
          "type": "uint256"
        },
        {
          "indexed": false,
          "name": "principal",
          "type": "uint256"
        },
        {
          "indexed": false,
          "name": "rate",
          "type": "uint256"
        },
        {
          "indexed": false,
          "name": "tenure",
          "type": "uint256"
        }
      ],
      "name": "LogLoanAccepted",
      "type": "event"
    },
    {
      "anonymous": false,
      "inputs": [
        {
          "indexed": false,
          "name": "_loanId",
          "type": "uint256"
        },
        {
          "indexed": false,
          "name": "principal",
          "type": "uint256"
        }
      ],
      "name": "LogLoanDisbursed",
      "type": "event"
    },
    {
      "anonymous": false,
      "inputs": [
        {
          "indexed": false,
          "name": "_loanId",
          "type": "uint256"
        }
      ],
      "name": "LogLoanRepaid",
      "type": "event"
    },
    {
      "anonymous": false,
      "inputs": [
        {
          "indexed": false,
          "name": "_loanId",
          "type": "uint256"
        },
        {
          "indexed": false,
          "name": "reason",
          "type": "bytes32"
        }
      ],
      "name": "LogLoanDeclined",
      "type": "event"
    },
    {
      "anonymous": false,
      "inputs": [
        {
          "indexed": false,
          "name": "_loanId",
          "type": "uint256"
        },
        {
          "indexed": false,
          "name": "strReason",
          "type": "bytes32"
        }
      ],
      "name": "LogSendFail",
      "type": "event"
    },
    {
      "anonymous": false,
      "inputs": [
        {
          "indexed": false,
          "name": "_recipient",
          "type": "address"
        },
        {
          "indexed": false,
          "name": "_from",
          "type": "uint256"
        },
        {
          "indexed": false,
          "name": "amount",
          "type": "uint256"
        }
      ],
      "name": "LogSendFunds",
      "type": "event"
    },
    {
      "anonymous": false,
      "inputs": [
        {
          "indexed": false,
          "name": "_sender",
          "type": "address"
        },
        {
          "indexed": false,
          "name": "_to",
          "type": "uint256"
        },
        {
          "indexed": false,
          "name": "amount",
          "type": "uint256"
        }
      ],
      "name": "LogReceivedFunds",
      "type": "event"
    },
    {
      "anonymous": false,
      "inputs": [
        {
          "indexed": false,
          "name": "_serviceProviderId",
          "type": "uint256"
        },
        {
          "indexed": false,
          "name": "_serviceProvider",
          "type": "address"
        },
        {
          "indexed": false,
          "name": "_name",
          "type": "bytes32"
        },
        {
          "indexed": false,
          "name": "_category",
          "type": "uint8"
        }
      ],
      "name": "LogNewServiceProvider",
      "type": "event"
    },
    {
      "anonymous": false,
      "inputs": [
        {
          "indexed": false,
          "name": "_customerId",
          "type": "uint256"
        },
        {
          "indexed": false,
          "name": "_customer",
          "type": "address"
        },
        {
          "indexed": false,
          "name": "_customerType",
          "type": "uint8"
        }
      ],
      "name": "LogNewCustomer",
      "type": "event"
    },
    {
      "constant": false,
      "inputs": [
        {
          "name": "_customerExternalId",
          "type": "bytes32"
        },
        {
          "name": "_customerType",
          "type": "uint8"
        }
      ],
      "name": "createCustomer",
      "outputs": [
        {
          "name": "_customerId",
          "type": "uint256"
        }
      ],
      "payable": false,
      "stateMutability": "nonpayable",
      "type": "function"
    },
    {
      "constant": false,
      "inputs": [
        {
          "name": "_serviceProviderExternalId",
          "type": "bytes32"
        },
        {
          "name": "_providerAddress",
          "type": "address"
        },
        {
          "name": "_name",
          "type": "bytes32"
        },
        {
          "name": "_category",
          "type": "uint8"
        }
      ],
      "name": "createServiceProvider",
      "outputs": [
        {
          "name": "_serviceProviderId",
          "type": "uint256"
        }
      ],
      "payable": false,
      "stateMutability": "nonpayable",
      "type": "function"
    },
    {
      "constant": false,
      "inputs": [
        {
          "name": "_principal",
          "type": "uint256"
        },
        {
          "name": "_tenure",
          "type": "uint256"
        },
        {
          "name": "_currency",
          "type": "uint8"
        },
        {
          "name": "_category",
          "type": "uint8"
        },
        {
          "name": "_customerExternalId",
          "type": "bytes32"
        },
        {
          "name": "_serviceProviderId",
          "type": "bytes32"
        }
      ],
      "name": "createLoan",
      "outputs": [
        {
          "name": "_loanId",
          "type": "uint256"
        }
      ],
      "payable": false,
      "stateMutability": "nonpayable",
      "type": "function"
    }
  ],
  "bytecode": "0x608060405234801561001057600080fd5b50610b68806100206000396000f3006080604052600436106100b95763ffffffff7c01000000000000000000000000000000000000000000000000000000006000350416630a02dcc781146100be578063242831651461011a5780632f73c4f11461016e57806371d430f8146101ad5780639eb86af9146101d1578063a0e6ea13146101e9578063a86217d814610216578063ab1421e014610234578063b462164a14610255578063c0abda2a14610270578063cf7749b614610288578063e1ec3c68146102a9575b600080fd5b3480156100ca57600080fd5b506100d6600435610388565b60408051600160a060020a0386168152602081018590529081018360028111156100fc57fe5b60ff1681526020810192909252506040805191829003019350915050f35b34801561012657600080fd5b506101326004356103cd565b60408051600160a060020a03851681526020810184905290810182600181111561015857fe5b60ff168152602001935050505060405180910390f35b34801561017a57600080fd5b5061019b60043560243560ff6044358116906064351660843560a4356103fc565b60408051918252519081900360200190f35b3480156101b957600080fd5b5061019b600160a060020a0360043516602435610510565b3480156101dd57600080fd5b506100d6600435610540565b3480156101f557600080fd5b5061019b600435600160a060020a036024351660443560ff60643516610577565b34801561022257600080fd5b5061019b60043560ff60243516610711565b34801561024057600080fd5b5061019b600160a060020a036004351661086a565b34801561026157600080fd5b5061019b60043560243561087c565b34801561027c57600080fd5b50610132600435610897565b34801561029457600080fd5b5061019b600160a060020a03600435166108d5565b3480156102b557600080fd5b506102c16004356108e7565b604051808f600160a060020a0316600160a060020a031681526020018e600160a060020a0316600160a060020a031681526020018d81526020018c600281111561030757fe5b60ff1681526020018b81526020018a600481111561032157fe5b60ff168152602081018a905260408101899052606081018890526080810187905260a0810186905260c0810185905260e081018490526101000182600581111561036757fe5b60ff1681526020019e50505050505050505050505050505060405180910390f35b600380548290811061039657fe5b60009182526020909120600490910201805460018201546002830154600390930154600160a060020a0390921693509160ff169084565b6002602081905260009182526040909120805460018201549190920154600160a060020a039092169160ff1683565b600080600680548091906001016104139190610979565b336000908152600860209081526040808320805460018181018355918552838520018590558884526007835290832080549182018155835291200181905560068054919350908390811061046357fe5b60009182526020909120600e90910201805473ffffffffffffffffffffffffffffffffffffffff1916331781556002810183905560048082018a9055600982018990556005820180549293508892909160ff199091169060019084908111156104c857fe5b0217905550600a8101849055600c810183905560038101805486919060ff191660018360028111156104f657fe5b0217905550600d01805460ff191690559695505050505050565b60086020528160005260406000208181548110151561052b57fe5b90600052602060002001600091509150505481565b6005602052600090815260409020805460018201546002830154600390930154600160a060020a0390921692909160ff9091169084565b6000806003805480919060010161058e91906109aa565b600160a060020a03861660009081526004602052604090208190556003805491935090839081106105bb57fe5b60009182526020909120600490910201805473ffffffffffffffffffffffffffffffffffffffff1916600160a060020a0387161781556001808201869055600280830180549394508693909260ff1990911691849081111561061957fe5b02179055506003810186905560008681526005602052604090208154815473ffffffffffffffffffffffffffffffffffffffff1916600160a060020a0390911617815560018083015481830155600280840154818401805486959460ff90931693919260ff1990911691849081111561068e57fe5b021790555060039182015491015560408051838152600160a060020a03871660208201529081018590527ff64330b96b2305db051021aecf4670aa853b905107898f17bd2362e0342829ee908390879087908790606081018260028111156106f257fe5b60ff16815260200194505050505060405180910390a150949350505050565b60008054819061072482600183016109d6565b3360009081526001602052604081208290558054919350908390811061074657fe5b6000918252602090912060016003909202018181018690556002810180549193508592909160ff191690838181111561077b57fe5b0217905550805473ffffffffffffffffffffffffffffffffffffffff19908116331780835560008681526002602081905260409091208054909316600160a060020a03929092169190911782556001808401548382015581840154918301805485949360ff169260ff199091169083818111156107f457fe5b02179055509050507f9c7406630dc1eb8723d9efd8a607acf0a12bbb4ab5ee49a0f54b2c63bc31e03d8233856040518084815260200183600160a060020a0316600160a060020a0316815260200182600181111561084e57fe5b60ff168152602001935050505060405180910390a15092915050565b60016020526000908152604090205481565b60076020528160005260406000208181548110151561052b57fe5b60008054829081106108a557fe5b6000918252602090912060039091020180546001820154600290920154600160a060020a03909116925060ff1683565b60046020526000908152604090205481565b60068054829081106108f557fe5b60009182526020909120600e9091020180546001820154600283015460038401546004850154600586015460068701546007880154600889015460098a0154600a8b0154600b8c0154600c8d0154600d909d0154600160a060020a039c8d169e509b909a169b989a60ff9889169a979996891698959794969395929491939192168e565b8154818355818111156109a557600e0281600e0283600052602060002091820191016109a59190610a02565b505050565b8154818355818111156109a5576004028160040283600052602060002091820191016109a59190610aad565b8154818355818111156109a5576003028160030283600052602060002091820191016109a59190610af8565b610aaa91905b80821115610aa657805473ffffffffffffffffffffffffffffffffffffffff199081168255600182018054909116905560006002820181905560038201805460ff19908116909155600483018290556005830180548216905560068301829055600783018290556008830182905560098301829055600a8301829055600b8301829055600c830191909155600d820180549091169055600e01610a08565b5090565b90565b610aaa91905b80821115610aa657805473ffffffffffffffffffffffffffffffffffffffff1916815560006001820181905560028201805460ff191690556003820155600401610ab3565b610aaa91905b80821115610aa657805473ffffffffffffffffffffffffffffffffffffffff191681556000600182015560028101805460ff19169055600301610afe5600a165627a7a72305820682abe48933644b42558ec41c403ea229b3e8028a80d20eaaf153aa037cfeb950029",
  "source": "pragma solidity ^0.4.24;\n\nimport \"./KarmaDatabaseModel.sol\";\nimport \"./KarmaConstants.sol\";\nimport \"./KarmaDatabaseInterface.sol\";\n\n\ncontract KarmaDatabase is KarmaDatabaseInterface {\n    // List of Customers\n    Customer[] public customers;\n    // lookup CustomerId from address\n    mapping (address => uint) public customerIds;\n    // lookup Customer based on external id\n    mapping (bytes32 => Customer) public customerByExternalId;\n\n    // List of Service providers\n    ServiceProvider[] public serviceProviders;\n    // Lookup serv\n    mapping (address => uint) public serviceProviderIds;\n    mapping (bytes32 => ServiceProvider) public serviceProviderByExternalIds;\n\n    // List of Loans\n    Loan[] public loans;\n    // lookup customer loan ids by external customer id\n    mapping (bytes32 => uint[]) public customerLoansById;\n    // look up customer loan ids by address\n    mapping (address => uint[]) public customerLoans;\n\n    function createCustomer(bytes32 _customerExternalId, CustomerType _customerType) external returns (uint _customerId){\n        _customerId =  customers.length++;\n        customerIds[msg.sender] = _customerId;\n\n        Customer storage c = customers[_customerId];\n        c.customerExternalId = _customerExternalId;\n        c.customerType = _customerType;\n        c.customerAddress = msg.sender;\n\n        customerByExternalId[_customerExternalId] = c;\n\n        emit LogNewCustomer(_customerId, msg.sender, _customerType);\n    }\n\n    function createServiceProvider(bytes32 _serviceProviderExternalId, address _providerAddress, bytes32 _name, Category _category) external returns (uint _serviceProviderId){\n        _serviceProviderId = serviceProviders.length++;\n\n        serviceProviderIds[_providerAddress] = _serviceProviderId;\n\n        ServiceProvider storage sp = serviceProviders[_serviceProviderId];\n        sp.providerAddress = _providerAddress;\n        sp.name = _name;\n        sp.category = _category;\n        sp.serviceProviderId = _serviceProviderExternalId;\n\n        serviceProviderByExternalIds[_serviceProviderExternalId] = sp;\n\n        emit LogNewServiceProvider(_serviceProviderId, _providerAddress, _name, _category);\n    }\n\n    function createLoan(uint _principal, uint _tenure, Currency _currency, Category _category, bytes32 _customerExternalId, bytes32 _serviceProviderId) external returns (uint _loanId) {\n        _loanId = loans.length++;\n        // push Loan Id into lookup based on Address\n        customerLoans[msg.sender].push(_loanId);\n\n        // psuh Loan Id into Lookup based on external Loan id\n        customerLoansById[_customerExternalId].push(_loanId);\n\n        // Populate the loan details for the loan based on loan Ids in the Loans Array\n        Loan storage l = loans[_loanId];\n        l.borrowerAddress = msg.sender;\n        l.loanId = _loanId;\n        l.principal = _principal;\n        l.tenure = _tenure;\n        l.currency = _currency;\n        l.borrowerExternalId = _customerExternalId;\n        l.serviceProviderId = _serviceProviderId;\n        l.category = _category;\n        l.status = Status.Apply;\n\n        // Notify new loan application\n        //emit LogLoanApplied(_loanId, _customerExternalId, _serviceProviderId,_principal, _tenure);\n    }\n}\n",
  "sourcePath": "/home/speak2ravi/Documents/develop/karmaBlockChain/contracts/KarmaDatabase.sol",
  "compiler": {
    "name": "solc",
    "version": "0.4.24+commit.e67f0147.Emscripten.clang"
  },
  "schemaVersion": "2.0.1",
  "updatedAt": "2018-11-05T13:44:15.992Z"
}