{
  "contractName": "KarmaDatabase",
  "abi": [
    {
      "constant": true,
      "inputs": [
        {
          "name": "",
          "type": "uint256"
        }
      ],
      "name": "serviceProviders",
      "outputs": [
        {
          "name": "providerAddress",
          "type": "address"
        },
        {
          "name": "serviceProviderId",
          "type": "bytes32"
        },
        {
          "name": "name",
          "type": "bytes32"
        },
        {
          "name": "category",
          "type": "uint8"
        }
      ],
      "payable": false,
      "stateMutability": "view",
      "type": "function"
    },
    {
      "constant": true,
      "inputs": [
        {
          "name": "",
          "type": "bytes32"
        }
      ],
      "name": "customerByExternalId",
      "outputs": [
        {
          "name": "customerAddress",
          "type": "address"
        },
        {
          "name": "customerExternalId",
          "type": "bytes32"
        },
        {
          "name": "customerType",
          "type": "uint8"
        }
      ],
      "payable": false,
      "stateMutability": "view",
      "type": "function"
    },
    {
      "constant": true,
      "inputs": [
        {
          "name": "x",
          "type": "bytes32"
        }
      ],
      "name": "b32toString",
      "outputs": [
        {
          "name": "",
          "type": "string"
        }
      ],
      "payable": false,
      "stateMutability": "pure",
      "type": "function"
    },
    {
      "constant": true,
      "inputs": [
        {
          "name": "",
          "type": "address"
        },
        {
          "name": "",
          "type": "uint256"
        }
      ],
      "name": "customerLoans",
      "outputs": [
        {
          "name": "",
          "type": "uint256"
        }
      ],
      "payable": false,
      "stateMutability": "view",
      "type": "function"
    },
    {
      "constant": true,
      "inputs": [
        {
          "name": "x",
          "type": "bytes32"
        }
      ],
      "name": "b32toHexString",
      "outputs": [
        {
          "name": "",
          "type": "string"
        }
      ],
      "payable": false,
      "stateMutability": "pure",
      "type": "function"
    },
    {
      "constant": true,
      "inputs": [
        {
          "name": "",
          "type": "bytes32"
        }
      ],
      "name": "serviceProviderByExternalIds",
      "outputs": [
        {
          "name": "providerAddress",
          "type": "address"
        },
        {
          "name": "serviceProviderId",
          "type": "bytes32"
        },
        {
          "name": "name",
          "type": "bytes32"
        },
        {
          "name": "category",
          "type": "uint8"
        }
      ],
      "payable": false,
      "stateMutability": "view",
      "type": "function"
    },
    {
      "constant": true,
      "inputs": [
        {
          "name": "",
          "type": "address"
        }
      ],
      "name": "customerIds",
      "outputs": [
        {
          "name": "",
          "type": "uint256"
        }
      ],
      "payable": false,
      "stateMutability": "view",
      "type": "function"
    },
    {
      "constant": true,
      "inputs": [
        {
          "name": "",
          "type": "bytes32"
        },
        {
          "name": "",
          "type": "uint256"
        }
      ],
      "name": "customerLoansById",
      "outputs": [
        {
          "name": "",
          "type": "uint256"
        }
      ],
      "payable": false,
      "stateMutability": "view",
      "type": "function"
    },
    {
      "constant": true,
      "inputs": [
        {
          "name": "",
          "type": "uint256"
        }
      ],
      "name": "customers",
      "outputs": [
        {
          "name": "customerAddress",
          "type": "address"
        },
        {
          "name": "customerExternalId",
          "type": "bytes32"
        },
        {
          "name": "customerType",
          "type": "uint8"
        }
      ],
      "payable": false,
      "stateMutability": "view",
      "type": "function"
    },
    {
      "constant": true,
      "inputs": [
        {
          "name": "",
          "type": "address"
        }
      ],
      "name": "serviceProviderIds",
      "outputs": [
        {
          "name": "",
          "type": "uint256"
        }
      ],
      "payable": false,
      "stateMutability": "view",
      "type": "function"
    },
    {
      "constant": true,
      "inputs": [
        {
          "name": "source",
          "type": "string"
        }
      ],
      "name": "stringToBytes32",
      "outputs": [
        {
          "name": "result",
          "type": "bytes32"
        }
      ],
      "payable": false,
      "stateMutability": "pure",
      "type": "function"
    },
    {
      "constant": true,
      "inputs": [
        {
          "name": "",
          "type": "uint256"
        }
      ],
      "name": "loans",
      "outputs": [
        {
          "name": "borrowerAddress",
          "type": "address"
        },
        {
          "name": "investorAddress",
          "type": "address"
        },
        {
          "name": "principal",
          "type": "uint256"
        },
        {
          "name": "tenure",
          "type": "uint256"
        },
        {
          "name": "currency",
          "type": "uint8"
        },
        {
          "name": "category",
          "type": "uint8"
        },
        {
          "name": "rateOfInterest",
          "type": "uint256"
        },
        {
          "name": "approvedRate",
          "type": "uint256"
        },
        {
          "name": "incentiveRate",
          "type": "uint256"
        },
        {
          "name": "loanId",
          "type": "uint256"
        },
        {
          "name": "borrowerExternalId",
          "type": "bytes32"
        },
        {
          "name": "investorExternalId",
          "type": "bytes32"
        },
        {
          "name": "serviceProviderId",
          "type": "bytes32"
        },
        {
          "name": "status",
          "type": "uint8"
        }
      ],
      "payable": false,
      "stateMutability": "view",
      "type": "function"
    },
    {
      "anonymous": false,
      "inputs": [
        {
          "indexed": false,
          "name": "_loanId",
          "type": "uint256"
        },
        {
          "indexed": false,
          "name": "_customerId",
          "type": "bytes32"
        },
        {
          "indexed": false,
          "name": "_serviceProviderId",
          "type": "bytes32"
        },
        {
          "indexed": false,
          "name": "principal",
          "type": "uint256"
        },
        {
          "indexed": false,
          "name": "tenure",
          "type": "uint256"
        }
      ],
      "name": "LogLoanApplied",
      "type": "event"
    },
    {
      "anonymous": false,
      "inputs": [
        {
          "indexed": false,
          "name": "_loanId",
          "type": "uint256"
        },
        {
          "indexed": false,
          "name": "principal",
          "type": "uint256"
        },
        {
          "indexed": false,
          "name": "rate",
          "type": "uint256"
        },
        {
          "indexed": false,
          "name": "tenure",
          "type": "uint256"
        }
      ],
      "name": "LogLoanAccepted",
      "type": "event"
    },
    {
      "anonymous": false,
      "inputs": [
        {
          "indexed": false,
          "name": "_loanId",
          "type": "uint256"
        },
        {
          "indexed": false,
          "name": "principal",
          "type": "uint256"
        }
      ],
      "name": "LogLoanDisbursed",
      "type": "event"
    },
    {
      "anonymous": false,
      "inputs": [
        {
          "indexed": false,
          "name": "_loanId",
          "type": "uint256"
        }
      ],
      "name": "LogLoanRepaid",
      "type": "event"
    },
    {
      "anonymous": false,
      "inputs": [
        {
          "indexed": false,
          "name": "_loanId",
          "type": "uint256"
        },
        {
          "indexed": false,
          "name": "reason",
          "type": "bytes32"
        }
      ],
      "name": "LogLoanDeclined",
      "type": "event"
    },
    {
      "anonymous": false,
      "inputs": [
        {
          "indexed": false,
          "name": "_loanId",
          "type": "uint256"
        },
        {
          "indexed": false,
          "name": "strReason",
          "type": "bytes32"
        }
      ],
      "name": "LogSendFail",
      "type": "event"
    },
    {
      "anonymous": false,
      "inputs": [
        {
          "indexed": false,
          "name": "_recipient",
          "type": "address"
        },
        {
          "indexed": false,
          "name": "_from",
          "type": "uint256"
        },
        {
          "indexed": false,
          "name": "amount",
          "type": "uint256"
        }
      ],
      "name": "LogSendFunds",
      "type": "event"
    },
    {
      "anonymous": false,
      "inputs": [
        {
          "indexed": false,
          "name": "_sender",
          "type": "address"
        },
        {
          "indexed": false,
          "name": "_to",
          "type": "uint256"
        },
        {
          "indexed": false,
          "name": "amount",
          "type": "uint256"
        }
      ],
      "name": "LogReceivedFunds",
      "type": "event"
    },
    {
      "anonymous": false,
      "inputs": [
        {
          "indexed": false,
          "name": "_serviceProviderId",
          "type": "uint256"
        },
        {
          "indexed": false,
          "name": "_serviceProvider",
          "type": "address"
        },
        {
          "indexed": false,
          "name": "_name",
          "type": "bytes32"
        },
        {
          "indexed": false,
          "name": "_category",
          "type": "uint8"
        }
      ],
      "name": "LogNewServiceProvider",
      "type": "event"
    },
    {
      "anonymous": false,
      "inputs": [
        {
          "indexed": false,
          "name": "_customerId",
          "type": "uint256"
        },
        {
          "indexed": false,
          "name": "_customer",
          "type": "address"
        },
        {
          "indexed": false,
          "name": "_customerType",
          "type": "uint8"
        }
      ],
      "name": "LogNewCustomer",
      "type": "event"
    },
    {
      "constant": false,
      "inputs": [
        {
          "name": "_customerExternalId",
          "type": "bytes32"
        },
        {
          "name": "_customerType",
          "type": "uint8"
        }
      ],
      "name": "createCustomer",
      "outputs": [
        {
          "name": "_customerId",
          "type": "uint256"
        }
      ],
      "payable": false,
      "stateMutability": "nonpayable",
      "type": "function"
    },
    {
      "constant": false,
      "inputs": [
        {
          "name": "_serviceProviderExternalId",
          "type": "bytes32"
        },
        {
          "name": "_providerAddress",
          "type": "address"
        },
        {
          "name": "_name",
          "type": "bytes32"
        },
        {
          "name": "_category",
          "type": "uint8"
        }
      ],
      "name": "createServiceProvider",
      "outputs": [
        {
          "name": "_serviceProviderId",
          "type": "uint256"
        }
      ],
      "payable": false,
      "stateMutability": "nonpayable",
      "type": "function"
    },
    {
      "constant": false,
      "inputs": [
        {
          "name": "_principal",
          "type": "uint256"
        },
        {
          "name": "_tenure",
          "type": "uint256"
        },
        {
          "name": "_currency",
          "type": "uint8"
        },
        {
          "name": "_category",
          "type": "uint8"
        },
        {
          "name": "_customerExternalId",
          "type": "bytes32"
        },
        {
          "name": "_serviceProviderId",
          "type": "bytes32"
        }
      ],
      "name": "createLoan",
      "outputs": [
        {
          "name": "_loanId",
          "type": "uint256"
        }
      ],
      "payable": false,
      "stateMutability": "nonpayable",
      "type": "function"
    },
    {
      "constant": false,
      "inputs": [],
      "name": "getCustomerCount",
      "outputs": [
        {
          "name": "_count",
          "type": "uint256"
        }
      ],
      "payable": false,
      "stateMutability": "nonpayable",
      "type": "function"
    },
    {
      "constant": false,
      "inputs": [
        {
          "name": "_customerId",
          "type": "uint256"
        }
      ],
      "name": "getCustomerById",
      "outputs": [
        {
          "name": "_customerAddress",
          "type": "address"
        },
        {
          "name": "_customerType",
          "type": "uint8"
        }
      ],
      "payable": false,
      "stateMutability": "nonpayable",
      "type": "function"
    },
    {
      "constant": false,
      "inputs": [],
      "name": "getServiceProviderCount",
      "outputs": [
        {
          "name": "_count",
          "type": "uint256"
        }
      ],
      "payable": false,
      "stateMutability": "nonpayable",
      "type": "function"
    },
    {
      "constant": false,
      "inputs": [
        {
          "name": "_serviceProviderId",
          "type": "uint256"
        }
      ],
      "name": "getServiceProviderById",
      "outputs": [
        {
          "name": "_providerAddress",
          "type": "address"
        },
        {
          "name": "_category",
          "type": "uint8"
        }
      ],
      "payable": false,
      "stateMutability": "nonpayable",
      "type": "function"
    },
    {
      "constant": false,
      "inputs": [],
      "name": "getLoanCount",
      "outputs": [
        {
          "name": "_count",
          "type": "uint256"
        }
      ],
      "payable": false,
      "stateMutability": "nonpayable",
      "type": "function"
    },
    {
      "constant": false,
      "inputs": [
        {
          "name": "_loanId",
          "type": "uint256"
        }
      ],
      "name": "getLoanById",
      "outputs": [
        {
          "name": "_customerAddress",
          "type": "address"
        },
        {
          "name": "_principal",
          "type": "uint256"
        },
        {
          "name": "_tenure",
          "type": "uint256"
        },
        {
          "name": "_currency",
          "type": "uint8"
        },
        {
          "name": "_category",
          "type": "uint8"
        }
      ],
      "payable": false,
      "stateMutability": "nonpayable",
      "type": "function"
    }
  ],
  "bytecode": "0x610200604052600b6080908152602a60a052604660c0908152606560e05260836101005260a2610120526101405260df6101605260fe6101805261011c6101a05261013b6101c0526101596101e0526200005e90600090600c62000073565b503480156200006c57600080fd5b5062000135565b600183019183908215620000fe5791602002820160005b83821115620000cc57835183826101000a81548161ffff021916908361ffff16021790555092602001926002016020816001010492830192600103026200008a565b8015620000fc5782816101000a81549061ffff0219169055600201602081600101049283019260010302620000cc565b505b506200010c92915062000110565b5090565b6200013291905b808211156200010c57805461ffff1916815560010162000117565b90565b6112e780620001456000396000f30060806040526004361061011c5763ffffffff7c010000000000000000000000000000000000000000000000000000000060003504166308ab36c681146101215780630a02dcc7146101995780632027d746146101f5578063242831651461021c5780632f73c4f1146102705780634407ff061461029d57806352196812146102e95780635c8a733a146102fe57806371d430f81461038b5780638ad46ba0146103af5780639b6fe53a146103c75780639eb86af9146103dc578063a0e6ea13146103f4578063a86217d814610421578063ab1421e01461043f578063b462164a14610460578063c0abda2a1461047b578063cf7749b614610493578063cfb51928146104b4578063e1ec3c681461050d578063fe018940146105ec575b600080fd5b34801561012d57600080fd5b50610139600435610623565b6040518086600160a060020a0316600160a060020a0316815260200185815260200184815260200183600481111561016d57fe5b60ff16815260200182600281111561018157fe5b60ff1681526020019550505050505060405180910390f35b3480156101a557600080fd5b506101b1600435610685565b60408051600160a060020a038616815260208101859052908101839052606081018260028111156101de57fe5b60ff16815260200194505050505060405180910390f35b34801561020157600080fd5b5061020a6106ca565b60408051918252519081900360200190f35b34801561022857600080fd5b506102346004356106d0565b60408051600160a060020a03851681526020810184905290810182600181111561025a57fe5b60ff168152602001935050505060405180910390f35b34801561027c57600080fd5b5061020a60043560243560ff6044358116906064351660843560a4356106fe565b3480156102a957600080fd5b506102b5600435610864565b604051600160a060020a0383168152602081018260028111156102d457fe5b60ff1681526020019250505060405180910390f35b3480156102f557600080fd5b5061020a6108a9565b34801561030a57600080fd5b506103166004356108af565b6040805160208082528351818301528351919283929083019185019080838360005b83811015610350578181015183820152602001610338565b50505050905090810190601f16801561037d5780820380516001836020036101000a031916815260200191505b509250505060405180910390f35b34801561039757600080fd5b5061020a600160a060020a0360043516602435610a5d565b3480156103bb57600080fd5b50610316600435610a8d565b3480156103d357600080fd5b5061020a610bf9565b3480156103e857600080fd5b506101b1600435610bff565b34801561040057600080fd5b5061020a600435600160a060020a036024351660443560ff60643516610c33565b34801561042d57600080fd5b5061020a60043560ff60243516610dce565b34801561044b57600080fd5b5061020a600160a060020a0360043516610f2b565b34801561046c57600080fd5b5061020a600435602435610f3d565b34801561048757600080fd5b50610234600435610f58565b34801561049f57600080fd5b5061020a600160a060020a0360043516610f96565b3480156104c057600080fd5b506040805160206004803580820135601f810184900484028501840190955284845261020a943694929360249392840191908190840183828082843750949750610fa89650505050505050565b34801561051957600080fd5b50610525600435610fcc565b604051808f600160a060020a0316600160a060020a031681526020018e600160a060020a0316600160a060020a031681526020018d81526020018c81526020018b600481111561057157fe5b60ff1681526020018a600281111561058557fe5b60ff168152602081018a905260408101899052606081018890526080810187905260a0810186905260c0810185905260e08101849052610100018260058111156105cb57fe5b60ff1681526020019e50505050505050505050505050505060405180910390f35b3480156105f857600080fd5b5061060460043561105d565b604051600160a060020a0383168152602081018260018111156102d457fe5b60008060008060008060078781548110151561063b57fe5b60009182526020909120600d90910201805460028201546003830154600490930154600160a060020a039092169a90995091975060ff808216975061010090910416945092505050565b600480548290811061069357fe5b60009182526020909120600490910201805460018201546002830154600390930154600160a060020a039092169350919060ff1684565b60015490565b600360205260009081526040902080546001820154600290920154600160a060020a03909116919060ff1683565b6000806007805480919060010161071591906110e8565b336000908152600960209081526040808320805460018181018355918552838520018590558884526008835290832080549182018155835291200181905560078054919350908390811061076557fe5b60009182526020909120600d90910201805473ffffffffffffffffffffffffffffffffffffffff191633178155600881018390556002810189905560038101889055600480820180549293508892909160ff199091169060019084908111156107ca57fe5b021790555060098101849055600b810183905560048101805486919061ff0019166101008360028111156107fa57fe5b0217905550600c8101805460ff191690556040805183815260208101869052808201859052606081018a90526080810189905290517fba87e35872445cf8e03661c93ff04ec96411ffdfecd976bfb5329efb0acc46bd9181900360a00190a1509695505050505050565b600080600060048481548110151561087857fe5b600091825260209091206004909102018054600390910154600160a060020a039091169560ff909116945092505050565b60075490565b6040805160208082528183019092526060918291600091829182918591908082016104008038833901905050945060009350600092505b6020831015610973576008830260020a870291507fff000000000000000000000000000000000000000000000000000000000000008216156109685781858581518110151561093157fe5b9060200101907effffffffffffffffffffffffffffffffffffffffffffffffffffffffffffff1916908160001a9053506001909301925b6001909201916108e6565b836040519080825280601f01601f1916602001820160405280156109a1578160200160208202803883390190505b509050600092505b83831015610a535784838151811015156109bf57fe5b9060200101517f010000000000000000000000000000000000000000000000000000000000000090047f0100000000000000000000000000000000000000000000000000000000000000028184815181101515610a1857fe5b9060200101907effffffffffffffffffffffffffffffffffffffffffffffffffffffffffffff1916908160001a9053506001909201916109a9565b9695505050505050565b600960205281600052604060002081815481101515610a7857fe5b90600052602060002001600091509150505481565b6040805181815260608082018352918291600091829182918291906020820161080080388339019050509450600093505b6020841015610bee576008601f8590030260020a87811515610adc57fe5b049250601060ff841604915050601081028203600960ff83161115610b02576027820191505b60098160ff161115610b12576027015b816030017f0100000000000000000000000000000000000000000000000000000000000000028585600202815181101515610b4957fe5b9060200101907effffffffffffffffffffffffffffffffffffffffffffffffffffffffffffff1916908160001a905350806030017f0100000000000000000000000000000000000000000000000000000000000000028585600202600101815181101515610bb357fe5b9060200101907effffffffffffffffffffffffffffffffffffffffffffffffffffffffffffff1916908160001a905350600190930192610abe565b509295945050505050565b60045490565b6006602052600090815260409020805460018201546002830154600390930154600160a060020a0390921692909160ff1684565b60008060048054809190600101610c4a9190611119565b600160a060020a0386166000908152600560205260409020819055600480549193509083908110610c7757fe5b60009182526020909120600490910201805473ffffffffffffffffffffffffffffffffffffffff1916600160a060020a03871617815560028082018690556003820180549293508592909160ff19909116906001908490811115610cd757fe5b0217905550600180820187815560008881526006602052604090208354815473ffffffffffffffffffffffffffffffffffffffff1916600160a060020a03909116178155905481830155600280840154818301556003808501549083018054869560ff90931693919260ff19909116918490811115610d5257fe5b02179055505060408051848152600160a060020a03881660208201529081018690527ff64330b96b2305db051021aecf4670aa853b905107898f17bd2362e0342829ee9150839087908790879060608101826002811115610daf57fe5b60ff16815260200194505050505060405180910390a150949350505050565b60008060018054809190600101610de59190611145565b336000908152600260205260409020819055600180549193509083908110610e0957fe5b6000918252602090912060016003909202018181018690556002810180549193508592909160ff1916908381811115610e3e57fe5b0217905550805473ffffffffffffffffffffffffffffffffffffffff19908116331780835560008681526003602052604090208054909216600160a060020a039190911617815560018083015482820155600280840154908301805485949360ff9093169260ff19909116908381811115610eb557fe5b02179055509050507f9c7406630dc1eb8723d9efd8a607acf0a12bbb4ab5ee49a0f54b2c63bc31e03d8233856040518084815260200183600160a060020a0316600160a060020a03168152602001826001811115610f0f57fe5b60ff168152602001935050505060405180910390a15092915050565b60026020526000908152604090205481565b600860205281600052604060002081815481101515610a7857fe5b6001805482908110610f6657fe5b6000918252602090912060039091020180546001820154600290920154600160a060020a03909116925060ff1683565b60056020526000908152604090205481565b805160009082901515610fbe5760009150610fc6565b602083015191505b50919050565b6007805482908110610fda57fe5b60009182526020909120600d9091020180546001820154600283015460038401546004850154600586015460068701546007880154600889015460098a0154600a8b0154600b8c0154600c909c0154600160a060020a039b8c169d5099909a169a9799969860ff808816996101009098048116989697959694959394929391168e565b600080611068611171565b600180548590811061107657fe5b60009182526020918290206040805160608101825260039093029091018054600160a060020a03168352600180820154948401949094526002810154929390929184019160ff16908111156110c757fe5b60018111156110d257fe5b9052508051604090910151909590945092505050565b81548183558181111561111457600d0281600d028360005260206000209182019101611114919061118f565b505050565b81548183558181111561111457600402816004028360005260206000209182019101611114919061122c565b815481835581811115611114576003028160030283600052602060002091820191016111149190611277565b60408051606081018252600080825260208201819052909182015290565b61122991905b8082111561122557805473ffffffffffffffffffffffffffffffffffffffff19908116825560018201805490911690556000600282018190556003820181905560048201805461ffff191690556005820181905560068201819055600782018190556008820181905560098201819055600a8201819055600b820155600c8101805460ff19169055600d01611195565b5090565b90565b61122991905b8082111561122557805473ffffffffffffffffffffffffffffffffffffffff19168155600060018201819055600282015560038101805460ff19169055600401611232565b61122991905b8082111561122557805473ffffffffffffffffffffffffffffffffffffffff191681556000600182015560028101805460ff1916905560030161127d5600a165627a7a723058204bbaac717536af0253e4cf37477e61a8e2cb1a670cb4551693fef7c48a65cd2d0029",
  "source": "pragma solidity ^0.4.24;\n\nimport \"./ConvertLib.sol\";\nimport \"./KarmaDatabaseModel.sol\";\nimport \"./KarmaConstants.sol\";\nimport \"./KarmaDatabaseInterface.sol\";\n\n\ncontract KarmaDatabase is KarmaDatabaseInterface, ConvertLib {\n    // List of Customers\n    Customer[] public customers;\n    mapping (address => uint) public customerIds; // Extract data from list using index based id\n    mapping (bytes32 => Customer) public customerByExternalId; // extract data based on Database id\n\n    // List of Service providers\n    ServiceProvider[] public serviceProviders;\n    mapping (address => uint) public serviceProviderIds; // Extract data from list using index based id\n    mapping (bytes32 => ServiceProvider) public serviceProviderByExternalIds; // extract data based on Database id\n\n    // List of Loans\n    Loan[] public loans;\n    mapping (bytes32 => uint[]) public customerLoansById; // Extract data from list using index based id\n    mapping (address => uint[]) public customerLoans; // extract data based on Database id\n\n    function createCustomer(bytes32 _customerExternalId, CustomerType _customerType) external returns (uint _customerId){\n        _customerId =  customers.length++;\n\n        customerIds[msg.sender] = _customerId;\n        Customer storage c = customers[_customerId];\n        c.customerExternalId = _customerExternalId;\n        c.customerType = _customerType;\n        c.customerAddress = msg.sender;\n\n        customerByExternalId[_customerExternalId] = c;\n\n        emit LogNewCustomer(_customerId, msg.sender, _customerType);\n    }\n\n    function createServiceProvider(bytes32 _serviceProviderExternalId, address _providerAddress, bytes32 _name, Category _category) external returns (uint _serviceProviderId){\n        _serviceProviderId = serviceProviders.length++;\n\n        serviceProviderIds[_providerAddress] = _serviceProviderId;\n\n        ServiceProvider storage sp = serviceProviders[_serviceProviderId];\n        sp.providerAddress = _providerAddress;\n        sp.name = _name;\n        sp.category = _category;\n        sp.serviceProviderId = _serviceProviderExternalId;\n\n        serviceProviderByExternalIds[_serviceProviderExternalId] = sp;\n\n        emit LogNewServiceProvider(_serviceProviderId, _providerAddress, _name, _category);\n    }\n\n    function createLoan(uint _principal, uint _tenure, Currency _currency, Category _category, bytes32 _customerExternalId, bytes32 _serviceProviderId) external returns (uint _loanId) {\n        _loanId = loans.length++;\n        customerLoans[msg.sender].push(_loanId);\n        customerLoansById[_customerExternalId].push(_loanId);\n\n        // Populate the loan details for the loan based on loan Ids in the Loans Array\n        Loan storage l = loans[_loanId];\n        l.borrowerAddress = msg.sender;\n        l.loanId = _loanId;\n        l.principal = _principal;\n        l.tenure = _tenure;\n        l.currency = _currency;\n        l.borrowerExternalId = _customerExternalId;\n        l.serviceProviderId = _serviceProviderId;\n        l.category = _category;\n        l.status = Status.Apply;\n\n        // Notify new loan application\n        emit LogLoanApplied(_loanId, _customerExternalId, _serviceProviderId,_principal, _tenure);\n    }\n\n    function getCustomerCount() external returns (uint _count){\n        _count = customers.length;\n    }\n\n    function getCustomerById(uint _customerId) external returns (address _customerAddress,CustomerType _customerType){\n      Customer memory c = customers[_customerId];\n      _customerAddress = c.customerAddress;\n      _customerType = c.customerType;\n    }\n\n\n    function getServiceProviderCount() external returns (uint _count){\n        _count = serviceProviders.length;\n    }\n\n    function getServiceProviderById(uint _serviceProviderId) external returns (address _providerAddress,Category _category){\n        ServiceProvider storage sp = serviceProviders[_serviceProviderId];\n        _providerAddress = sp.providerAddress;\n        _category = sp.category;\n    }\n\n    function getLoanCount() external returns (uint _count){\n        _count = loans.length;\n    }\n\n    function getLoanById(uint _loanId) external returns (address _customerAddress,uint _principal, uint _tenure, Currency _currency,Category _category){\n        Loan storage l = loans[_loanId];\n\n        _customerAddress = l.borrowerAddress;\n        _principal = l.principal;\n        _tenure = l.tenure;\n        _currency = l.currency;\n        _category = l.category;\n    }\n}\n",
  "sourcePath": "/home/speak2ravi/Documents/develop/karmaBlockChain/contracts/KarmaDatabase.sol",
  "compiler": {
    "name": "solc",
    "version": "0.4.24+commit.e67f0147.Emscripten.clang"
  },
  "schemaVersion": "2.0.1",
  "updatedAt": "2018-11-06T12:21:37.807Z"
}