{
  "contractName": "KarmaDatabase",
  "abi": [
    {
      "constant": true,
      "inputs": [
        {
          "name": "",
          "type": "uint256"
        }
      ],
      "name": "serviceProviders",
      "outputs": [
        {
          "name": "providerAddress",
          "type": "address"
        },
        {
          "name": "serviceProviderId",
          "type": "bytes32"
        },
        {
          "name": "name",
          "type": "bytes32"
        },
        {
          "name": "category",
          "type": "uint8"
        }
      ],
      "payable": false,
      "stateMutability": "view",
      "type": "function"
    },
    {
      "constant": true,
      "inputs": [
        {
          "name": "",
          "type": "bytes32"
        }
      ],
      "name": "customerByExternalId",
      "outputs": [
        {
          "name": "customerAddress",
          "type": "address"
        },
        {
          "name": "customerExternalId",
          "type": "bytes32"
        },
        {
          "name": "customerType",
          "type": "uint8"
        }
      ],
      "payable": false,
      "stateMutability": "view",
      "type": "function"
    },
    {
      "constant": true,
      "inputs": [
        {
          "name": "x",
          "type": "bytes32"
        }
      ],
      "name": "b32toString",
      "outputs": [
        {
          "name": "",
          "type": "string"
        }
      ],
      "payable": false,
      "stateMutability": "pure",
      "type": "function"
    },
    {
      "constant": true,
      "inputs": [
        {
          "name": "",
          "type": "address"
        },
        {
          "name": "",
          "type": "uint256"
        }
      ],
      "name": "customerLoans",
      "outputs": [
        {
          "name": "",
          "type": "uint256"
        }
      ],
      "payable": false,
      "stateMutability": "view",
      "type": "function"
    },
    {
      "constant": true,
      "inputs": [
        {
          "name": "x",
          "type": "bytes32"
        }
      ],
      "name": "b32toHexString",
      "outputs": [
        {
          "name": "",
          "type": "string"
        }
      ],
      "payable": false,
      "stateMutability": "pure",
      "type": "function"
    },
    {
      "constant": true,
      "inputs": [
        {
          "name": "",
          "type": "bytes32"
        }
      ],
      "name": "serviceProviderByExternalIds",
      "outputs": [
        {
          "name": "providerAddress",
          "type": "address"
        },
        {
          "name": "serviceProviderId",
          "type": "bytes32"
        },
        {
          "name": "name",
          "type": "bytes32"
        },
        {
          "name": "category",
          "type": "uint8"
        }
      ],
      "payable": false,
      "stateMutability": "view",
      "type": "function"
    },
    {
      "constant": true,
      "inputs": [
        {
          "name": "",
          "type": "address"
        }
      ],
      "name": "customerIds",
      "outputs": [
        {
          "name": "",
          "type": "uint256"
        }
      ],
      "payable": false,
      "stateMutability": "view",
      "type": "function"
    },
    {
      "constant": true,
      "inputs": [
        {
          "name": "",
          "type": "bytes32"
        },
        {
          "name": "",
          "type": "uint256"
        }
      ],
      "name": "customerLoansById",
      "outputs": [
        {
          "name": "",
          "type": "uint256"
        }
      ],
      "payable": false,
      "stateMutability": "view",
      "type": "function"
    },
    {
      "constant": true,
      "inputs": [
        {
          "name": "",
          "type": "uint256"
        }
      ],
      "name": "customers",
      "outputs": [
        {
          "name": "customerAddress",
          "type": "address"
        },
        {
          "name": "customerExternalId",
          "type": "bytes32"
        },
        {
          "name": "customerType",
          "type": "uint8"
        }
      ],
      "payable": false,
      "stateMutability": "view",
      "type": "function"
    },
    {
      "constant": true,
      "inputs": [
        {
          "name": "",
          "type": "address"
        }
      ],
      "name": "serviceProviderIds",
      "outputs": [
        {
          "name": "",
          "type": "uint256"
        }
      ],
      "payable": false,
      "stateMutability": "view",
      "type": "function"
    },
    {
      "constant": true,
      "inputs": [
        {
          "name": "source",
          "type": "string"
        }
      ],
      "name": "stringToBytes32",
      "outputs": [
        {
          "name": "result",
          "type": "bytes32"
        }
      ],
      "payable": false,
      "stateMutability": "pure",
      "type": "function"
    },
    {
      "constant": true,
      "inputs": [
        {
          "name": "",
          "type": "uint256"
        }
      ],
      "name": "loans",
      "outputs": [
        {
          "name": "borrowerAddress",
          "type": "address"
        },
        {
          "name": "investorAddress",
          "type": "address"
        },
        {
          "name": "principal",
          "type": "uint256"
        },
        {
          "name": "tenure",
          "type": "uint256"
        },
        {
          "name": "currency",
          "type": "uint8"
        },
        {
          "name": "category",
          "type": "uint8"
        },
        {
          "name": "rateOfInterest",
          "type": "uint256"
        },
        {
          "name": "approvedRate",
          "type": "uint256"
        },
        {
          "name": "incentiveRate",
          "type": "uint256"
        },
        {
          "name": "loanId",
          "type": "uint256"
        },
        {
          "name": "borrowerExternalId",
          "type": "bytes32"
        },
        {
          "name": "investorExternalId",
          "type": "bytes32"
        },
        {
          "name": "serviceProviderId",
          "type": "bytes32"
        },
        {
          "name": "status",
          "type": "uint8"
        }
      ],
      "payable": false,
      "stateMutability": "view",
      "type": "function"
    },
    {
      "anonymous": false,
      "inputs": [
        {
          "indexed": false,
          "name": "_loanId",
          "type": "uint256"
        },
        {
          "indexed": false,
          "name": "_customerId",
          "type": "bytes32"
        },
        {
          "indexed": false,
          "name": "_serviceProviderId",
          "type": "bytes32"
        },
        {
          "indexed": false,
          "name": "principal",
          "type": "uint256"
        },
        {
          "indexed": false,
          "name": "tenure",
          "type": "uint256"
        }
      ],
      "name": "LogLoanApplied",
      "type": "event"
    },
    {
      "anonymous": false,
      "inputs": [
        {
          "indexed": false,
          "name": "_loanId",
          "type": "uint256"
        },
        {
          "indexed": false,
          "name": "principal",
          "type": "uint256"
        },
        {
          "indexed": false,
          "name": "rate",
          "type": "uint256"
        },
        {
          "indexed": false,
          "name": "tenure",
          "type": "uint256"
        }
      ],
      "name": "LogLoanAccepted",
      "type": "event"
    },
    {
      "anonymous": false,
      "inputs": [
        {
          "indexed": false,
          "name": "_loanId",
          "type": "uint256"
        },
        {
          "indexed": false,
          "name": "principal",
          "type": "uint256"
        }
      ],
      "name": "LogLoanDisbursed",
      "type": "event"
    },
    {
      "anonymous": false,
      "inputs": [
        {
          "indexed": false,
          "name": "_loanId",
          "type": "uint256"
        }
      ],
      "name": "LogLoanRepaid",
      "type": "event"
    },
    {
      "anonymous": false,
      "inputs": [
        {
          "indexed": false,
          "name": "_loanId",
          "type": "uint256"
        },
        {
          "indexed": false,
          "name": "reason",
          "type": "bytes32"
        }
      ],
      "name": "LogLoanDeclined",
      "type": "event"
    },
    {
      "anonymous": false,
      "inputs": [
        {
          "indexed": false,
          "name": "_loanId",
          "type": "uint256"
        },
        {
          "indexed": false,
          "name": "strReason",
          "type": "bytes32"
        }
      ],
      "name": "LogSendFail",
      "type": "event"
    },
    {
      "anonymous": false,
      "inputs": [
        {
          "indexed": false,
          "name": "_recipient",
          "type": "address"
        },
        {
          "indexed": false,
          "name": "_from",
          "type": "uint256"
        },
        {
          "indexed": false,
          "name": "amount",
          "type": "uint256"
        }
      ],
      "name": "LogSendFunds",
      "type": "event"
    },
    {
      "anonymous": false,
      "inputs": [
        {
          "indexed": false,
          "name": "_sender",
          "type": "address"
        },
        {
          "indexed": false,
          "name": "_to",
          "type": "uint256"
        },
        {
          "indexed": false,
          "name": "amount",
          "type": "uint256"
        }
      ],
      "name": "LogReceivedFunds",
      "type": "event"
    },
    {
      "anonymous": false,
      "inputs": [
        {
          "indexed": false,
          "name": "_serviceProviderId",
          "type": "uint256"
        },
        {
          "indexed": false,
          "name": "_serviceProvider",
          "type": "address"
        },
        {
          "indexed": false,
          "name": "_name",
          "type": "bytes32"
        },
        {
          "indexed": false,
          "name": "_category",
          "type": "uint8"
        }
      ],
      "name": "LogNewServiceProvider",
      "type": "event"
    },
    {
      "anonymous": false,
      "inputs": [
        {
          "indexed": false,
          "name": "_customerId",
          "type": "uint256"
        },
        {
          "indexed": false,
          "name": "_customer",
          "type": "address"
        },
        {
          "indexed": false,
          "name": "_customerType",
          "type": "uint8"
        }
      ],
      "name": "LogNewCustomer",
      "type": "event"
    },
    {
      "constant": false,
      "inputs": [
        {
          "name": "_customerExternalId",
          "type": "string"
        },
        {
          "name": "_customerType",
          "type": "uint8"
        }
      ],
      "name": "createCustomer",
      "outputs": [
        {
          "name": "_customerId",
          "type": "uint256"
        }
      ],
      "payable": false,
      "stateMutability": "nonpayable",
      "type": "function"
    },
    {
      "constant": false,
      "inputs": [
        {
          "name": "_serviceProviderExternalId",
          "type": "bytes32"
        },
        {
          "name": "_providerAddress",
          "type": "address"
        },
        {
          "name": "_name",
          "type": "bytes32"
        },
        {
          "name": "_category",
          "type": "uint8"
        }
      ],
      "name": "createServiceProvider",
      "outputs": [
        {
          "name": "_serviceProviderId",
          "type": "uint256"
        }
      ],
      "payable": false,
      "stateMutability": "nonpayable",
      "type": "function"
    },
    {
      "constant": false,
      "inputs": [
        {
          "name": "_principal",
          "type": "uint256"
        },
        {
          "name": "_tenure",
          "type": "uint256"
        },
        {
          "name": "_currency",
          "type": "uint8"
        },
        {
          "name": "_category",
          "type": "uint8"
        },
        {
          "name": "_customerExternalId",
          "type": "bytes32"
        },
        {
          "name": "_serviceProviderId",
          "type": "bytes32"
        }
      ],
      "name": "createLoan",
      "outputs": [
        {
          "name": "_loanId",
          "type": "uint256"
        }
      ],
      "payable": false,
      "stateMutability": "nonpayable",
      "type": "function"
    }
  ],
  "bytecode": "0x610200604052600b6080908152602a60a052604660c0908152606560e05260836101005260a2610120526101405260df6101605260fe6101805261011c6101a05261013b6101c0526101596101e05261005c90600090600c61006f565b5034801561006957600080fd5b50610127565b6001830191839082156100f55791602002820160005b838211156100c557835183826101000a81548161ffff021916908361ffff1602179055509260200192600201602081600101049283019260010302610085565b80156100f35782816101000a81549061ffff02191690556002016020816001010492830192600103026100c5565b505b50610101929150610105565b5090565b61012491905b8082111561010157805461ffff1916815560010161010b565b90565b610fa6806101366000396000f3006080604052600436106100da5763ffffffff7c01000000000000000000000000000000000000000000000000000000006000350416630a02dcc781146100df578063242831651461013b5780632f73c4f11461018f57806356ea01e8146101ce5780635c8a733a146101f657806371d430f8146102835780638ad46ba0146102a75780639eb86af9146102bf578063a0e6ea13146102d7578063ab1421e014610304578063b462164a14610325578063c0abda2a14610340578063cf7749b614610358578063cfb5192814610379578063e1ec3c68146103d2575b600080fd5b3480156100eb57600080fd5b506100f76004356104b1565b60408051600160a060020a0386168152602081018590529081018390526060810182600281111561012457fe5b60ff16815260200194505050505060405180910390f35b34801561014757600080fd5b506101536004356104f6565b60408051600160a060020a03851681526020810184905290810182600181111561017957fe5b60ff168152602001935050505060405180910390f35b34801561019b57600080fd5b506101bc60043560243560ff6044358116906064351660843560a435610524565b60408051918252519081900360200190f35b3480156101da57600080fd5b506101bc602460048035828101929101359060ff90351661068a565b34801561020257600080fd5b5061020e60043561077a565b6040805160208082528351818301528351919283929083019185019080838360005b83811015610248578181015183820152602001610230565b50505050905090810190601f1680156102755780820380516001836020036101000a031916815260200191505b509250505060405180910390f35b34801561028f57600080fd5b506101bc600160a060020a0360043516602435610928565b3480156102b357600080fd5b5061020e600435610958565b3480156102cb57600080fd5b506100f7600435610ac4565b3480156102e357600080fd5b506101bc600435600160a060020a036024351660443560ff60643516610af8565b34801561031057600080fd5b506101bc600160a060020a0360043516610c93565b34801561033157600080fd5b506101bc600435602435610ca5565b34801561034c57600080fd5b50610153600435610cc0565b34801561036457600080fd5b506101bc600160a060020a0360043516610cfe565b34801561038557600080fd5b506040805160206004803580820135601f81018490048402850184019095528484526101bc943694929360249392840191908190840183828082843750949750610d109650505050505050565b3480156103de57600080fd5b506103ea600435610d34565b604051808f600160a060020a0316600160a060020a031681526020018e600160a060020a0316600160a060020a031681526020018d81526020018c81526020018b600481111561043657fe5b60ff1681526020018a600281111561044a57fe5b60ff168152602081018a905260408101899052606081018890526080810187905260a0810186905260c0810185905260e081018490526101000182600581111561049057fe5b60ff1681526020019e50505050505050505050505050505060405180910390f35b60048054829081106104bf57fe5b60009182526020909120600490910201805460018201546002830154600390930154600160a060020a039092169350919060ff1684565b600360205260009081526040902080546001820154600290920154600160a060020a03909116919060ff1683565b6000806007805480919060010161053b9190610dc5565b336000908152600960209081526040808320805460018181018355918552838520018590558884526008835290832080549182018155835291200181905560078054919350908390811061058b57fe5b60009182526020909120600d90910201805473ffffffffffffffffffffffffffffffffffffffff191633178155600881018390556002810189905560038101889055600480820180549293508892909160ff199091169060019084908111156105f057fe5b021790555060098101849055600b810183905560048101805486919061ff00191661010083600281111561062057fe5b0217905550600c8101805460ff191690556040805183815260208101869052808201859052606081018a90526080810189905290517fba87e35872445cf8e03661c93ff04ec96411ffdfecd976bfb5329efb0acc46bd9181900360a00190a1509695505050505050565b600080600180548091906001016106a19190610df6565b3360009081526002602052604090208190556001805491935090839081106106c557fe5b90600052602060002090600302019050828160020160006101000a81548160ff021916908360018111156106f557fe5b0217905550805473ffffffffffffffffffffffffffffffffffffffff191633908117825560408051848152602081018390527f9c7406630dc1eb8723d9efd8a607acf0a12bbb4ab5ee49a0f54b2c63bc31e03d92859290918791810182600181111561075d57fe5b60ff168152602001935050505060405180910390a1509392505050565b6040805160208082528183019092526060918291600091829182918591908082016104008038833901905050945060009350600092505b602083101561083e576008830260020a870291507fff00000000000000000000000000000000000000000000000000000000000000821615610833578185858151811015156107fc57fe5b9060200101907effffffffffffffffffffffffffffffffffffffffffffffffffffffffffffff1916908160001a9053506001909301925b6001909201916107b1565b836040519080825280601f01601f19166020018201604052801561086c578160200160208202803883390190505b509050600092505b8383101561091e57848381518110151561088a57fe5b9060200101517f010000000000000000000000000000000000000000000000000000000000000090047f01000000000000000000000000000000000000000000000000000000000000000281848151811015156108e357fe5b9060200101907effffffffffffffffffffffffffffffffffffffffffffffffffffffffffffff1916908160001a905350600190920191610874565b9695505050505050565b60096020528160005260406000208181548110151561094357fe5b90600052602060002001600091509150505481565b6040805181815260608082018352918291600091829182918291906020820161080080388339019050509450600093505b6020841015610ab9576008601f8590030260020a878115156109a757fe5b049250601060ff841604915050601081028203600960ff831611156109cd576027820191505b60098160ff1611156109dd576027015b816030017f0100000000000000000000000000000000000000000000000000000000000000028585600202815181101515610a1457fe5b9060200101907effffffffffffffffffffffffffffffffffffffffffffffffffffffffffffff1916908160001a905350806030017f0100000000000000000000000000000000000000000000000000000000000000028585600202600101815181101515610a7e57fe5b9060200101907effffffffffffffffffffffffffffffffffffffffffffffffffffffffffffff1916908160001a905350600190930192610989565b509295945050505050565b6006602052600090815260409020805460018201546002830154600390930154600160a060020a0390921692909160ff1684565b60008060048054809190600101610b0f9190610e22565b600160a060020a0386166000908152600560205260409020819055600480549193509083908110610b3c57fe5b60009182526020909120600490910201805473ffffffffffffffffffffffffffffffffffffffff1916600160a060020a03871617815560028082018690556003820180549293508592909160ff19909116906001908490811115610b9c57fe5b0217905550600180820187815560008881526006602052604090208354815473ffffffffffffffffffffffffffffffffffffffff1916600160a060020a03909116178155905481830155600280840154818301556003808501549083018054869560ff90931693919260ff19909116918490811115610c1757fe5b02179055505060408051848152600160a060020a03881660208201529081018690527ff64330b96b2305db051021aecf4670aa853b905107898f17bd2362e0342829ee9150839087908790879060608101826002811115610c7457fe5b60ff16815260200194505050505060405180910390a150949350505050565b60026020526000908152604090205481565b60086020528160005260406000208181548110151561094357fe5b6001805482908110610cce57fe5b6000918252602090912060039091020180546001820154600290920154600160a060020a03909116925060ff1683565b60056020526000908152604090205481565b805160009082901515610d265760009150610d2e565b602083015191505b50919050565b6007805482908110610d4257fe5b60009182526020909120600d9091020180546001820154600283015460038401546004850154600586015460068701546007880154600889015460098a0154600a8b0154600b8c0154600c909c0154600160a060020a039b8c169d5099909a169a9799969860ff808816996101009098048116989697959694959394929391168e565b815481835581811115610df157600d0281600d028360005260206000209182019101610df19190610e4e565b505050565b815481835581811115610df157600302816003028360005260206000209182019101610df19190610eeb565b815481835581811115610df157600402816004028360005260206000209182019101610df19190610f2f565b610ee891905b80821115610ee457805473ffffffffffffffffffffffffffffffffffffffff19908116825560018201805490911690556000600282018190556003820181905560048201805461ffff191690556005820181905560068201819055600782018190556008820181905560098201819055600a8201819055600b820155600c8101805460ff19169055600d01610e54565b5090565b90565b610ee891905b80821115610ee457805473ffffffffffffffffffffffffffffffffffffffff191681556000600182015560028101805460ff19169055600301610ef1565b610ee891905b80821115610ee457805473ffffffffffffffffffffffffffffffffffffffff19168155600060018201819055600282015560038101805460ff19169055600401610f355600a165627a7a72305820f5ea45804dd2a1ca9044561f9bb6ad89337eddeb6af56b5c2ba3ae038b2575fe0029",
  "source": "pragma solidity ^0.4.24;\n\nimport \"./ConvertLib.sol\";\nimport \"./KarmaDatabaseModel.sol\";\nimport \"./KarmaConstants.sol\";\nimport \"./KarmaDatabaseInterface.sol\";\n\n\ncontract KarmaDatabase is KarmaDatabaseInterface, ConvertLib {\n    // List of Customers\n    Customer[] public customers;\n    mapping (address => uint) public customerIds; // Extract data from list using index based id\n    mapping (bytes32 => Customer) public customerByExternalId; // extract data based on Database id\n\n    // List of Service providers\n    ServiceProvider[] public serviceProviders;\n    mapping (address => uint) public serviceProviderIds; // Extract data from list using index based id\n    mapping (bytes32 => ServiceProvider) public serviceProviderByExternalIds; // extract data based on Database id\n\n    // List of Loans\n    Loan[] public loans;\n    mapping (bytes32 => uint[]) public customerLoansById; // Extract data from list using index based id\n    mapping (address => uint[]) public customerLoans; // extract data based on Database id\n\n    function createCustomer(string _customerExternalId, CustomerType _customerType) external returns (uint _customerId){\n        _customerId =  customers.length++;\n\n        customerIds[msg.sender] = _customerId;\n        Customer storage c = customers[_customerId];\n        // c.customerExternalId = stringToBytes32(_customerExternalId);\n        c.customerType = _customerType;\n        c.customerAddress = msg.sender;\n\n        // customerByExternalId[stringToBytes32(_customerExternalId)] = c;\n\n        emit LogNewCustomer(_customerId, msg.sender, _customerType);\n    }\n\n    function createServiceProvider(bytes32 _serviceProviderExternalId, address _providerAddress, bytes32 _name, Category _category) external returns (uint _serviceProviderId){\n        _serviceProviderId = serviceProviders.length++;\n\n        serviceProviderIds[_providerAddress] = _serviceProviderId;\n\n        ServiceProvider storage sp = serviceProviders[_serviceProviderId];\n        sp.providerAddress = _providerAddress;\n        sp.name = _name;\n        sp.category = _category;\n        sp.serviceProviderId = _serviceProviderExternalId;\n\n        serviceProviderByExternalIds[_serviceProviderExternalId] = sp;\n\n        emit LogNewServiceProvider(_serviceProviderId, _providerAddress, _name, _category);\n    }\n\n    function createLoan(uint _principal, uint _tenure, Currency _currency, Category _category, bytes32 _customerExternalId, bytes32 _serviceProviderId) external returns (uint _loanId) {\n        _loanId = loans.length++;\n        customerLoans[msg.sender].push(_loanId);\n        customerLoansById[_customerExternalId].push(_loanId);\n\n        // Populate the loan details for the loan based on loan Ids in the Loans Array\n        Loan storage l = loans[_loanId];\n        l.borrowerAddress = msg.sender;\n        l.loanId = _loanId;\n        l.principal = _principal;\n        l.tenure = _tenure;\n        l.currency = _currency;\n        l.borrowerExternalId = _customerExternalId;\n        l.serviceProviderId = _serviceProviderId;\n        l.category = _category;\n        l.status = Status.Apply;\n\n        // Notify new loan application\n        emit LogLoanApplied(_loanId, _customerExternalId, _serviceProviderId,_principal, _tenure);\n    }\n}\n",
  "sourcePath": "/home/speak2ravi/Documents/develop/karmaBlockChain/contracts/KarmaDatabase.sol",
  "compiler": {
    "name": "solc",
    "version": "0.4.24+commit.e67f0147.Emscripten.clang"
  },
  "schemaVersion": "2.0.1",
  "updatedAt": "2018-11-06T10:40:41.908Z"
}